{
  "_format": "hh-sol-artifact-1",
  "contractName": "coffee",
  "sourceName": "contracts/coffee.sol",
  "abi": [
    {
      "inputs": [],
      "stateMutability": "nonpayable",
      "type": "constructor"
    },
    {
      "anonymous": false,
      "inputs": [
        {
          "indexed": true,
          "internalType": "address",
          "name": "from",
          "type": "address"
        },
        {
          "indexed": false,
          "internalType": "string",
          "name": "name",
          "type": "string"
        },
        {
          "indexed": false,
          "internalType": "uint256",
          "name": "timestamp",
          "type": "uint256"
        },
        {
          "indexed": false,
          "internalType": "string",
          "name": "message",
          "type": "string"
        }
      ],
      "name": "NewMemo",
      "type": "event"
    },
    {
      "inputs": [
        {
          "internalType": "string",
          "name": "_message",
          "type": "string"
        },
        {
          "internalType": "string",
          "name": "_name",
          "type": "string"
        }
      ],
      "name": "BuyACoffee",
      "outputs": [],
      "stateMutability": "payable",
      "type": "function"
    },
    {
      "inputs": [],
      "name": "WithdrawTips",
      "outputs": [],
      "stateMutability": "nonpayable",
      "type": "function"
    },
    {
      "inputs": [],
      "name": "getMemos",
      "outputs": [
        {
          "components": [
            {
              "internalType": "address",
              "name": "from",
              "type": "address"
            },
            {
              "internalType": "string",
              "name": "name",
              "type": "string"
            },
            {
              "internalType": "uint256",
              "name": "timestamp",
              "type": "uint256"
            },
            {
              "internalType": "string",
              "name": "message",
              "type": "string"
            }
          ],
          "internalType": "struct coffee.memo[]",
          "name": "",
          "type": "tuple[]"
        }
      ],
      "stateMutability": "view",
      "type": "function"
    }
  ],
  "bytecode": "0x608060405234801561001057600080fd5b50336000806101000a81548173ffffffffffffffffffffffffffffffffffffffff021916908373ffffffffffffffffffffffffffffffffffffffff160217905550610b7a806100606000396000f3fe6080604052600436106100345760003560e01c8063865c517214610039578063933accc114610064578063cb3c7eb114610080575b600080fd5b34801561004557600080fd5b5061004e610097565b60405161005b919061083f565b60405180910390f35b61007e600480360381019061007991906105fb565b61027a565b005b34801561008c57600080fd5b50610095610402565b005b60606001805480602002602001604051908101604052809291908181526020016000905b8282101561027157838290600052602060002090600402016040518060800160405290816000820160009054906101000a900473ffffffffffffffffffffffffffffffffffffffff1673ffffffffffffffffffffffffffffffffffffffff1673ffffffffffffffffffffffffffffffffffffffff16815260200160018201805461014490610a20565b80601f016020809104026020016040519081016040528092919081815260200182805461017090610a20565b80156101bd5780601f10610192576101008083540402835291602001916101bd565b820191906000526020600020905b8154815290600101906020018083116101a057829003601f168201915b50505050508152602001600282015481526020016003820180546101e090610a20565b80601f016020809104026020016040519081016040528092919081815260200182805461020c90610a20565b80156102595780601f1061022e57610100808354040283529160200191610259565b820191906000526020600020905b81548152906001019060200180831161023c57829003601f168201915b505050505081525050815260200190600101906100bb565b50505050905090565b600034116102bd576040517f08c379a00000000000000000000000000000000000000000000000000000000081526004016102b4906108a6565b60405180910390fd5b600160405180608001604052803373ffffffffffffffffffffffffffffffffffffffff16815260200183815260200142815260200184815250908060018154018082558091505060019003906000526020600020906004020160009091909190915060008201518160000160006101000a81548173ffffffffffffffffffffffffffffffffffffffff021916908373ffffffffffffffffffffffffffffffffffffffff16021790555060208201518160010190805190602001906103829291906104f0565b506040820151816002015560608201518160030190805190602001906103a99291906104f0565b5050503373ffffffffffffffffffffffffffffffffffffffff167f9cbdb861a8c6ab2e495ff601344e92ee90cfb0c9fb1e1370b1ae6431115cb2a18242856040516103f693929190610861565b60405180910390a25050565b60008054906101000a900473ffffffffffffffffffffffffffffffffffffffff1673ffffffffffffffffffffffffffffffffffffffff163373ffffffffffffffffffffffffffffffffffffffff1614610490576040517f08c379a0000000000000000000000000000000000000000000000000000000008152600401610487906108c6565b60405180910390fd5b60008054906101000a900473ffffffffffffffffffffffffffffffffffffffff1673ffffffffffffffffffffffffffffffffffffffff166108fc479081150290604051600060405180830381858888f193505050506104ee57600080fd5b565b8280546104fc90610a20565b90600052602060002090601f01602090048101928261051e5760008555610565565b82601f1061053757805160ff1916838001178555610565565b82800160010185558215610565579182015b82811115610564578251825591602001919060010190610549565b5b5090506105729190610576565b5090565b5b8082111561058f576000816000905550600101610577565b5090565b60006105a66105a18461090b565b6108e6565b9050828152602081018484840111156105be57600080fd5b6105c98482856109de565b509392505050565b600082601f8301126105e257600080fd5b81356105f2848260208601610593565b91505092915050565b6000806040838503121561060e57600080fd5b600083013567ffffffffffffffff81111561062857600080fd5b610634858286016105d1565b925050602083013567ffffffffffffffff81111561065157600080fd5b61065d858286016105d1565b9150509250929050565b600061067383836107b7565b905092915050565b610684816109a2565b82525050565b60006106958261094c565b61069f818561096f565b9350836020820285016106b18561093c565b8060005b858110156106ed57848403895281516106ce8582610667565b94506106d983610962565b925060208a019950506001810190506106b5565b50829750879550505050505092915050565b600061070a82610957565b6107148185610980565b93506107248185602086016109ed565b61072d81610ae1565b840191505092915050565b600061074382610957565b61074d8185610991565b935061075d8185602086016109ed565b61076681610ae1565b840191505092915050565b600061077e601d83610991565b915061078982610af2565b602082019050919050565b60006107a1601983610991565b91506107ac82610b1b565b602082019050919050565b60006080830160008301516107cf600086018261067b565b50602083015184820360208601526107e782826106ff565b91505060408301516107fc6040860182610821565b506060830151848203606086015261081482826106ff565b9150508091505092915050565b61082a816109d4565b82525050565b610839816109d4565b82525050565b60006020820190508181036000830152610859818461068a565b905092915050565b6000606082019050818103600083015261087b8186610738565b905061088a6020830185610830565b818103604083015261089c8184610738565b9050949350505050565b600060208201905081810360008301526108bf81610771565b9050919050565b600060208201905081810360008301526108df81610794565b9050919050565b60006108f0610901565b90506108fc8282610a52565b919050565b6000604051905090565b600067ffffffffffffffff82111561092657610925610ab2565b5b61092f82610ae1565b9050602081019050919050565b6000819050602082019050919050565b600081519050919050565b600081519050919050565b6000602082019050919050565b600082825260208201905092915050565b600082825260208201905092915050565b600082825260208201905092915050565b60006109ad826109b4565b9050919050565b600073ffffffffffffffffffffffffffffffffffffffff82169050919050565b6000819050919050565b82818337600083830152505050565b60005b83811015610a0b5780820151818401526020810190506109f0565b83811115610a1a576000848401525b50505050565b60006002820490506001821680610a3857607f821691505b60208210811415610a4c57610a4b610a83565b5b50919050565b610a5b82610ae1565b810181811067ffffffffffffffff82111715610a7a57610a79610ab2565b5b80604052505050565b7f4e487b7100000000000000000000000000000000000000000000000000000000600052602260045260246000fd5b7f4e487b7100000000000000000000000000000000000000000000000000000000600052604160045260246000fd5b6000601f19601f8301169050919050565b7f796f7520646f6e2774206861766520656e6f7567682062616c616e6365000000600082015250565b7f796f752063616e206e6f7420776974686472617720746970730000000000000060008201525056fea2646970667358221220fc8a745ce46ba8dab9cd67c22431e57c276d89c26e4af8d3138c2b14a4caddeb64736f6c63430008040033",
  "linkReferences": {},
  "deployedLinkReferences": {}
}